:100000000C945C010C9484010C9484010C94A9134D
:100010000C94A9130C94A9130C9484010C948401DE
:100020000C9484010C9484010C9484010C94B313FB
:100030000C9484010C9484010C9484010C9484012C
:100040000C9407130C9484010C9477130C945113A3
:100050000C9484010C9484010C9484010C9484010C
:100060000C946F140C948401084AD73B3BCE016E6C
:1000700084BCBFFDC12F3D6C74319ABD56833DDAFF
:100080003D00C77F11BED9E4BB4C3E916BAAAABE0E
:10009000000000803F005B4248313735305D20452D
:1000A00052524F523A20756E646566696E656420DF
:1000B0006572726F72005B4248313735305D2045A2
:1000C00052524F523A206F74686572206572726F97
:1000D00072005B4248313735305D204552524F52F5
:1000E0003A207265636569766564204E41434B2012
:1000F0006F6E207472616E736D6974206F66206418
:10010000617461005B4248313735305D20455252A1
:100110004F523A207265636569766564204E4143AB
:100120004B206F6E207472616E736D6974206F6600
:100130002061646472657373005B42483137353007
:100140005D204552524F523A20746F6F206C6F6E93
:100150006720666F72207472616E736D69742062BD
:100160007566666572005B4248313735305D204503
:1001700052524F523A20756E646566696E6564200E
:100180006572726F72005B4248313735305D2045D1
:1001900052524F523A206F74686572206572726FC6
:1001A00072005B4248313735305D204552524F5224
:1001B0003A207265636569766564204E41434B2041
:1001C0006F6E207472616E736D6974206F66206447
:1001D000617461005B4248313735305D20455252D1
:1001E0004F523A207265636569766564204E4143DB
:1001F0004B206F6E207472616E736D6974206F6630
:100200002061646472657373005B42483137353036
:100210005D204552524F523A20746F6F206C6F6EC2
:100220006720666F72207472616E736D69742062EC
:100230007566666572005B4248313735305D204433
:100240006576696365206973206E6F7420636F6ED5
:10025000666967757265642100000000002400274C
:10026000002A0000000000250028002B00000000EC
:1002700000230026002900040404040404040402EA
:100280000202020202030303030303010204081033
:100290002040800102040810200102040810200000
:1002A0000000080002010000030407000000000035
:1002B000000000008E15FE1A11241FBECFEFD8E0FB
:1002C000DEBFCDBF12E0A0E0B1E0E2ECF7E402C097
:1002D00005900D92AC38B107D9F726E0ACE8B2E052
:1002E00001C01D92A83FB207E1F711E0CBE5D1E0D4
:1002F00004C02197FE010E942E1FCA35D107C9F7FD
:100300000E94DE180C94D4230C940000833081F0FA
:1003100028F4813099F08230A9F008958730A9F04F
:100320008830C9F08430B1F4809180008F7D03C0A3
:10033000809180008F7780938000089584B58F77B7
:1003400084BD089584B58F7DFBCF8091B0008F77F9
:100350008093B00008958091B0008F7DF9CFCF9346
:10036000DF93282F30E0F901E156FD4F8491F90128
:10037000E557FD4FD491F901E958FD4FC491CC23C5
:10038000A1F081110E948601EC2FF0E0EE0FFF1F1B
:10039000E359FD4FA591B491EC91ED2381E090E0FC
:1003A00009F480E0DF91CF91089580E090E0FACFEA
:1003B0001F93CF93DF93282F30E0F901E156FD4FD3
:1003C0008491F901E557FD4FD491F901E958FD4FAA
:1003D000C491CC23A9F0162F81110E948601EC2F25
:1003E000F0E0EE0FFF1FED59FD4FA591B4918FB7CF
:1003F000F894EC91111108C0D095DE23DC938FBFE7
:10040000DF91CF911F910895DE2BF8CFCF93DF932B
:1004100090E0FC01E557FD4F249189589D4FFC0168
:1004200084918823D1F090E0880F991FFC01E75A4E
:10043000FD4FA591B491FC01ED59FD4FC591D491AB
:1004400061110EC09FB7F8948C91E22FE0958E2336
:100450008C932881E223E8839FBFDF91CF91089599
:100460008FB7F894EC91E22BEC938FBFF6CF8E30E0
:1004700008F08E508770806480937C0080917A00B1
:10048000806480937A0080917A0086FDFCCF809111
:1004900078009091790008953FB7F89480914E03C9
:1004A00090914F03A0915003B091510326B5A89BA2
:1004B00005C02F3F19F00196A11DB11D3FBFBA2FF6
:1004C000A92F982F8827BC01CD01620F711D811DB6
:1004D000911D42E0660F771F881F991F4A95D1F73B
:1004E00008958F929F92AF92BF92CF92DF92EF9238
:1004F000FF924B015C010E944C026B017C010E9447
:100500004C026C197D098E099F09683E7340810574
:100510009105A8F321E0821A9108A108B10888EE9C
:10052000C80E83E0D81EE11CF11C81149104A104C3
:10053000B10429F7FF90EF90DF90CF90BF90AF907C
:100540009F908F9008952FB7F89460914A0370910F
:100550004B0380914C0390914D032FBF0895089554
:100560000895AF92BF92CF92DF92EF92FF920F93D6
:100570001F93CF93DF936C017B018B01040F151F39
:10058000EB015E01AE18BF08C017D10759F06991A1
:10059000D601ED91FC910190F081E02DC601099505
:1005A000892B79F7C501DF91CF911F910F91FF90B2
:1005B000EF90DF90CF90BF90AF900895FC01538DE6
:1005C000448D252F30E0842F90E0821B930B54172D
:1005D00010F0CF96089501970895FC01918D828DBA
:1005E000981761F0A28DAE0FBF2FB11D5D968C9153
:1005F000928D9F5F9F73928F90E008958FEF9FEF92
:100600000895FC01918D828D981731F0828DE80F4D
:10061000F11D858D90E008958FEF9FEF0895FC0107
:10062000918D228D892F90E0805C9F4F821B9109D4
:100630008F739927089582E593E00E940F0321E0CC
:10064000892B09F420E0822F089580E090E0892B27
:1006500029F00E941B0381110C9400000895FC01F5
:10066000A48DA80FB92FB11DA35ABF4F2C91848D13
:1006700090E001968F739927848FA689B7892C9370
:10068000A089B1898C91837080648C93938D848DC3
:10069000981306C00288F389E02D80818F7D8083C6
:1006A0000895EF92FF920F931F93CF93DF93EC0186
:1006B00081E0888F9B8D8C8D98131AC0E889F98909
:1006C000808185FF15C09FB7F894EE89FF8960830C
:1006D000E889F98980818370806480839FBF81E08D
:1006E00090E0DF91CF911F910F91FF90EF900895CF
:1006F000F62E0B8D10E00F5F1F4F0F731127E02EAA
:100700008C8D8E110CC00FB607FCFACFE889F989E1
:10071000808185FFF5CFCE010E942F03F1CFEB8DB5
:10072000EC0FFD2FF11DE35AFF4FF0829FB7F894B5
:100730000B8FEA89FB8980818062CFCFCF93DF93D3
:10074000EC01888D8823B9F0AA89BB89E889F989E9
:100750008C9185FD03C0808186FD0DC00FB607FC1E
:10076000F7CF8C9185FFF2CF808185FFEDCFCE0151
:100770000E942F03E9CFDF91CF9108958F929F922E
:10078000AF92BF92CF92DF92EF92FF92FC018281F3
:1007900058E5C52E52E0D52EC81AD10887FDD3944E
:1007A000CC0CDD1CCC0CDD1C0D2C000CEE08FF0865
:1007B000818178E8872E912C881A910887FD93947F
:1007C000880C991C880C991C092C000CAA08BB08E1
:1007D00080818F3FD1F190E0FC01EE0FFF1FE80F09
:1007E000F91FE151FC4F8181928133E0880F991FFD
:1007F0003A95E1F7B0E0A0E044E0B595A79597956C
:1008000087954A95D1F702969C012F5F3F4F032EA3
:10081000000C440B550B281939094A095B09A4EB54
:10082000B0E00E947E1CA7019601281939094A09E7
:100830005B090E945F1CC901FF90EF90DF90CF9091
:10084000BF90AF909F908F90089590E080E0DCCFB4
:100850008F929F92AF92BF92FF920F931F93CF936D
:10086000DF93FC01F0808BE08F1508F44AC0828191
:1008700008E512E0081B110987FD1395000F111FF1
:10088000000F111F8181C8E8D0E0C81BD10987FD86
:10089000D395CC0FDD1FCC0FDD1F4E010D2E000CAC
:1008A000AA08BB089801012E000C440B550B28190F
:1008B00039094A095B09DB010E94891C24EB30E0FD
:1008C00040E050E00E945F1C820E931EA41EB51EE5
:1008D0008C169D062CF0E801801691060CF4E401BC
:1008E0002297CC0FDD1F2FB7F8948F2D90E0FC01DD
:1008F000EE0FFF1FE80FF91FE151FC4FD283C183B8
:100900002FBFDF91CF911F910F91FF90BF90AF90BC
:100910009F908F900895DC01ED91FC910190F08102
:10092000E02D09942091CF02260F3327331F213267
:100930003105ECF420911803FC0190E080E02430B4
:1009400069F082E00895A091CF022191AC01415558
:100950005D4FA40FB52FB11D2C930196861798F308
:100960008091CF02680F6093CF0280E0089581E00C
:1009700008951092180381E08093170310921203D8
:1009800061E082E10E94D80161E083E10E94D80128
:10099000E9EBF0E080818E7F808380818D7F808392
:1009A00088E48093B80085E48093BC000895CF93D9
:1009B000DF9391E09093AE028823B9F0C091B80024
:1009C000D091BA008091BC008A7B8093BC0060E02B
:1009D00082E10E94D80160E083E10E94D8010E9478
:1009E000B904D093BA00C093B800DF91CF910895B5
:1009F0000895E091480380914703E81730F4F0E050
:100A0000E25EFC4F808190E008958FEF9FEF0895A4
:100A100090914803809147032FEF3FEF981748F4D8
:100A2000E92FF0E0E25EFC4F208130E09F5F909381
:100A30004803C90108958091470390914803891B99
:100A4000990B0895CF92DF92EF92FF920F931F932D
:100A5000CF93DF937C01CB018A012091AD02222349
:100A600089F0EB016B01C40ED51ECC15DD0569F0D4
:100A70006991D701ED91FC910190F081E02DC701C2
:100A80000995F3CF642F0E949204C801DF91CF91A2
:100A90001F910F91FF90EF90DF90CF900895CF932B
:100AA000DF931F92CDB7DEB769832091AD02222379
:100AB000F9F020914503203258F021E030E0FC01AC
:100AC0003383228390E080E00F90DF91CF910895EF
:100AD00080914603E82FF0E0E357FD4F9981908322
:100AE0008F5F809346038093450381E090E0ECCFD5
:100AF00061E0CE0101960E949204F7CFCF92DF927F
:100B0000EF92FF920F931F93CF93DF93D091450302
:100B100081E0D13208F09CC0C0918C020E944C024E
:100B20006B017C018091180381116CC082E080937D
:100B3000180381E0809317038FEF809316031092C0
:100B40001503D0931403ADE8B2E0E2EFF2E080E0E9
:100B5000D8138DC01092130380911303CC0FC82BB0
:100B6000C093130380911203813009F084C0109266
:100B700012030E944C026B017C018091130380934D
:100B8000BB0080911A0390911B03A0911C03B091AC
:100B90001D03892B8A2B8B2BA1F00E944C02009104
:100BA0001A0310911B0320911C0330911D036C1933
:100BB0007D098E099F09061717072807390708F4CA
:100BC00042C08091BC0083FDD8CF85EC8093BC00EF
:100BD0000E944C026B017C0180911803823009F461
:100BE0004CC0809116038F3F09F469C080911603B1
:100BF000803209F466C080911603803309F463C023
:100C000084E026C080911A0390911B03A0911C03DD
:100C1000B0911D03892B8A2B8B2B09F483CF0E9463
:100C20004C0200911A0310911B0320911C03309178
:100C30001D036C197D098E099F09061717072807E0
:100C4000390708F06FCF809119030E94D70485E01F
:100C500010924603109245031092AD02DF91CF919E
:100C60001F910F91FF90EF90DF90CF9008959D918D
:100C700091938F5F6DCF85EEA9CF80911A039091EC
:100C80001B03A0911C03B0911D03892B8A2B8B2B76
:100C900009F4A2CF0E944C0200911A0310911B0389
:100CA00020911C0330911D036C197D098E099F0949
:100CB000061717072807390708F08ECFC4CF80E042
:100CC000C7CF82E0C5CF83E0C3CF90E080E0089536
:100CD0000F931F93CF93DF93DC015F96ED91FC910F
:100CE000309781F0EC01ADA1BEA114960D911C913D
:100CF000159715969C938E9314970995EDA1FEA1D7
:100D000015830483DF91CF911F910F91089508956A
:100D100008950895089508950895089508950895EB
:100D2000089508950895089570E060E084E894E0DF
:100D30000E94600770E060E08EE694E00C94A006EC
:100D40006F927F928F929F92AF92BF92CF92DF92DB
:100D5000EF92FF920F931F93CF93DF93EC01EE85F9
:100D6000FF85828D0E9437027C01E889F989828D96
:100D70000E9437026C01EA89FB89828D0E9437024A
:100D80005C01EC89FD89828D0E943702AC81BD81B6
:100D9000ED91FC9111970190F081E02D8C0195016E
:100DA000A601B701CD0109957C018A819B814A96F4
:100DB0000E94BE038C01B701681B790B072E000C43
:100DC000880B990B0E94421B6B017C0120E030E0F4
:100DD000A9010E94A71E46015701181624F0B7FA70
:100DE000B094B7F8B0946C857D85072E000C880B05
:100DF000990B0E94421BA50194010E943B1B87FF97
:100E000050C0288539854A855B85C701B6010E9497
:100E1000A11B3B014C01AE80BF80662777276A1972
:100E20007B09072E000C880B990B0E94421B6B015B
:100E30007C019301A4010E94A71E181684F0B5013D
:100E4000BB0C880B990B0E94421B6B017C01930128
:100E5000A4010E943B1B87FD02C063017401B6011F
:100E6000C7010E944A1E600F711F653B710514F097
:100E700064EB70E077FF02C070E060E08A819B81E4
:100E80004A96DF91CF911F910F91FF90EF90DF90E5
:100E9000CF90BF90AF909F908F907F906F900C9469
:100EA0002804DF91CF911F910F91FF90EF90DF9079
:100EB000CF90BF90AF909F908F907F906F9008954C
:100EC0004F925F926F927F928F929F92AF92BF925A
:100ED000CF92DF92EF92FF920F931F93CF93DF9306
:100EE00000D000D000D0CDB7DEB79E838D83DC016B
:100EF0009296ED91FC91828D0E9437027C01AD812A
:100F0000BE819496ED91FC91828D0E9437026C0116
:100F1000AD81BE819696ED91FC91828D0E94370243
:100F20005C01AD81BE819896ED91FC91828D0E940D
:100F30003702ED81FE81A481B581ED91FC9111977D
:100F40000190F081E02D8C019501A601B701CD0142
:100F500009957C01AD81BE8112968D919C914A9636
:100F60000E94BE038C01B701681B790B072E000C91
:100F7000880B990B0E94421B6B017C0120E030E042
:100F8000A9010E94A71E46015701181624F0B7FABE
:100F9000B094B7F8B094ED81FE8160A171A1072EE5
:100FA000000C880B990B0E94421BA50194010E9422
:100FB0003B1B87FFD7C00E94A3022B013C01ED81A0
:100FC000FE81848D958DA68DB78D0097A105B10505
:100FD00009F05BC0448E558E668E778E612C712C25
:100FE000A12CB12CED81FE81868097806627772722
:100FF00068197909072E000C880B990B0E94421B77
:101000006B017C019301A5010E94A71E181684F0B4
:10101000B401990C880B990B0E94421B6B017C0157
:101020009301A5010E943B1B87FD02C0630175016E
:10103000B601C7010E944A1E600F711F653B710512
:1010400014F064EB70E077FF02C070E060E0AD8107
:10105000BE8112968D919C914A9626960FB6F89471
:10106000DEBF0FBECDBFDF91CF911F910F91FF90DB
:10107000EF90DF90CF90BF90AF909F908F907F9038
:101080006F905F904F900C942804A3019201281B4D
:10109000390B4A0B5B0BCA01B9010E94421B20E0CD
:1010A00030E04AE754E40E94D81D4B015C01AD8159
:1010B000BE8118962D913D914D915C911B97C70172
:1010C000B6010E94A11B69837A838B839C83ED8187
:1010D000FE812485358546855785C701B6010E9466
:1010E000A11BA50194010E94A11B9B01AC01AD8134
:1010F000BE8154966D917D918D919C9157970E94E0
:10110000FA1CED81FE81648B758B868B978B208D0D
:10111000318D428D538DC701B6010E94F91CAD81FE
:10112000BE8150962D913D914D915C9153970E94B7
:10113000A11BA50194010E94D81D9B01AC01ED816A
:10114000FE81C08ED18EE28EF38E448E558E668ED9
:10115000778E69817A818B819C810E94FA1C3B0188
:101160005C0140CF26960FB6F894DEBF0FBECDBF10
:10117000DF91CF911F910F91FF90EF90DF90CF9073
:10118000BF90AF909F908F907F906F905F904F90A7
:101190000895FF920F931F93CF93DF938C01065E08
:1011A0001F4FFC01228D2C3008F051C0EC01F58C52
:1011B00061E08F2D0E9406028A8D282F30E0F90110
:1011C000EE0FFF1FE20FF31FE151FC4F2F2D2F7386
:1011D0009081907C922B90831B8E1C8E2CE0622F32
:1011E0000E94131F829FB001112430E020E0AB0168
:1011F000420F531FFA01EE0FFF1FE40FF51FE151DD
:10120000FC4F908196FD16C02F5F3F4F2C3031056B
:1012100071F781110FC01092800082E080938100ED
:101220001092850010928400B19A80916F008260C4
:1012300080936F00EA8D8E2F90E0FC01EE0FFF1F70
:10124000E80FF91FE151FC4F80818064808370E0DA
:1012500060E0C801DF91CF911F910F91FF900C9436
:10126000280448970C94C90808950895089508958E
:10127000AF92BF92CF92DF92EF92FF920F931F93A4
:10128000CF93DF937C016B015A018C010E5F1F4FDE
:10129000D0E0C0E0D70156968D919C91C817D90730
:1012A0007CF4F801819191918F01DC01ED91FC9129
:1012B0000190F081E02DA501B60109952196EACFB4
:1012C000DF91CF911F910F91FF90EF90DF90CF9022
:1012D000BF90AF9008950F931F93CF93DF93FC01BE
:1012E000A5A1B6A1109709F448C0EC01178A108E89
:1012F000118E128E82818B7F8283058CF68DE02D7C
:101300003097B9F18A8181FD34C014960D911C91FA
:1013100015971596DC93CE9314978A8182608A8301
:1013200009959A8180FB90F99A838A818D7F8A83BF
:10133000EDA1FEA1158304838B819C81AD81BE81CB
:101340008F839887A987BA870E94A3020F81188587
:1013500029853A85601B710B820B930B6B877C8709
:101360008D879E878A818170DF91CF911F910F9128
:1013700008958A8181608A83DFCF80E0F5CFCF93A3
:10138000DF93EC0186EA91E0998388838A8180FF6C
:101390000CC09A818A818E7F8A838A818D7F8A831D
:1013A00090FF03C0CE010E946806EDA1FEA1309718
:1013B00089F017821EA21DA2A9A1BAA18BA19CA18E
:1013C000109799F4009749F41182108213821282C7
:1013D00081E08783DF91CF910895DC0192961C9282
:1013E0001E92919791838083F3CF009739F494965E
:1013F0001C921E929397B383A283EACF94969C93F8
:101400008E9393970BA0DCA1C02DBAA3A9A3E0CF24
:101410003F924F925F926F927F928F929F92AF9284
:10142000BF92CF92DF92EF92FF920F931F93CF93D1
:10143000DF9300D000D01F92CDB7DEB77C01162F0E
:10144000CE0101964C0185E0D4011D928A95E9F701
:1014500061E0812F0E94060260E0812F0E94D80186
:1014600064E170E080E090E00E94710261E0812F11
:101470000E94D8018BE990E00197F1F760E0812F9D
:101480000E94060241E5C42ED12C812F0E94AF019B
:10149000892BE9F4B1E0CB1AD108B9F78EEF9FEFB1
:1014A0000F900F900F900F900F90DF91CF911F91A1
:1014B0000F91FF90EF90DF90CF90BF90AF909F90F3
:1014C0008F907F906F905F904F903F90089531E59F
:1014D000C32ED12C812F0E94AF01019729F4E1E0A6
:1014E000CE1AD108B9F7DACF28E2C22ED12C312C8E
:1014F00007E091E1A92E97E2B92E812F0E94AF015A
:10150000892B29F4F1E0AF1AB108B9F7C7CF0E94CF
:101510004C022B013C0181E1A82E87E2B82E812FDD
:101520000E94AF01019729F481E0A81AB108B9F728
:10153000B5CF0E944C026419750986099709693272
:1015400071058105910568F0F401E30DF11D8081BD
:1015500021E030E0002E01C0220F0A94EAF7822B2E
:101560008083011140C0339407E091E0C91AD1088B
:1015700009F0BFCF8981282F30E0D70111963C9325
:101580002E934B81642F70E013967C936E93129789
:1015900015963C932E9314973A81E32FF0E017961B
:1015A000FC93EE93169719967C936E9318972C8163
:1015B000622F70E01B967C936E931A979D81692F22
:1015C00070E01D967C936E931C97840F830F820F9F
:1015D00021E030E0891302C030E020E0882799271D
:1015E000821B930B5DCF0150C0CF8F929F92AF9221
:1015F000BF92CF92DF92EF92FF920F931F93CF9300
:10160000DF93EC01F8800E944C024B015C01809159
:101610001803811165C081E080931803809317033C
:101620009FEF9093160310921503809314038093F9
:10163000130380911303FF0CF82AF0921303809197
:101640001203813009F0E8C0109212030E944C028C
:101650006B017C01809113038093BB0080911A037E
:1016600090911B03A0911C03B0911D03892B8A2B21
:101670008B2BA1F00E944C0280901A0390901B03C8
:10168000A0901C03B0901D036C197D098E099F0961
:1016900086169706A806B90608F443C08091BC00D8
:1016A00083FDD8CF85EC8093BC000E944C026B0177
:1016B0007C0180911803813009F4B0C0809115033A
:1016C000823008F0CDC080911503A2EFB2E0EEE1C8
:1016D000F3E090E0981751F12D9121939F5FFACF9D
:1016E00080911A0390911B03A0911C03B0911D03DC
:1016F000892B8A2B8B2B09F48ACF0E944C020091F4
:101700001A0310911B0320911C0330911D036819CB
:1017100079098A099B09061717072807390708F06E
:1017200076CF809119030E94D70480E0109248037D
:1017300080934703823009F095C088859985DC0144
:10174000ED91FC910284F385E02D0995E12CF82EB2
:1017500088859985DC01ED91FC910284F385E02D6B
:1017600009958E299F29BC0190E080E00E94401BD2
:101770006B017C010E94A3026A877B878C879D870F
:1017800020E030E040E85FEBC701B6010E943B1B60
:10179000882399F169816534A9F070E090E080E0D8
:1017A0000E94401B9B01AC0160E070E08AE892E47B
:1017B0000E94D81D9B01AC01C701B6010E94A11B6C
:1017C0006B017C018E819F818132910511F04197DF
:1017D00051F420E030E040E05FE3C701B6010E9431
:1017E000A11B6B017C012A813B814C815D81C7017A
:1017F000B6010E94D81D6B017C01C701B601DF91C3
:10180000CF911F910F91FF90EF90DF90CF90BF90FD
:10181000AF909F908F90089585EE45CF80911A03E9
:1018200090911B03A0911C03B0911D03892B8A2B5F
:101830008B2B09F43ECF0E944C0280901A039090AB
:101840001B03A0901C03B0901D036C197D098E0929
:101850009F0986169706A806B90608F02ACF61CF19
:1018600082E033CFC12CD12C80E8E82E8FEBF82E0C
:1018700081CF42E050E060E072E082E593E00C94BA
:10188000B1020F931F93CF93DF938C01D0E0C0E0A0
:10189000F801EC0FFD1F6491662341F082E593E0AF
:1018A0000E945103892B11F02196F2CF0E94390C2E
:1018B0008C0F9D1FDF91CF911F910F9108950F9372
:1018C0001F93CF93DF93EC0188A199A1892B39F461
:1018D00086E392E00E94410C8FE097E21CC08E01EB
:1018E000065E1F4FC8010E94F50A20E030E0A90102
:1018F0000E943B1B87FDF0CF88A199A1892B81F421
:1019000086E392E00E94410C60E070E080E090ECA1
:101910000E944A1ECB01DF91CF911F910F91089534
:10192000C8010E94F50AF4CF0F931F93CF93DF9362
:10193000EC0123E22A8F8AA19BA101E00093AD0272
:1019400020938C021092460310924503DC01ED9126
:10195000FC910190F081E02D60E109958AA19BA1A5
:101960000E947E05182F6AE070E080E090E00E94FF
:101970007102123009F47CC048F41123A9F089E007
:1019800092E0113059F086E691E008C082EA91E0D9
:10199000133021F086E891E01430A9F7DF91CF9160
:1019A0001F910F910C94410C80E190E099A388A3C2
:1019B0000E94A3026CA37DA38EA39FA38AA19BA1D7
:1019C0002A8D0093AD0220938C0210924603109250
:1019D000450362E470E00E948B048AA19BA10E94EF
:1019E0007E05182F8AA19BA12A8D0093AD0220931A
:1019F0008C02109246031092450365E670E00E9447
:101A00008B048AA19BA10E947E05182B8AA19BA111
:101A10002A8D0093AD0220938C02109246031092FF
:101A2000450368A179A10E948B048AA19BA10E9411
:101A30007E05182B6AE070E080E090E00E94710261
:101A4000123001F150F41123B1F089E391E011302B
:101A500009F4A4CF86E990E0A1CF82ED90E01330A5
:101A600009F49CCF86EB90E0143009F497CFF2CFC5
:101A700084ED91E093CF85E48B8FDF91CF911F911F
:101A80000F91089584E091E089CF48970C94940CCD
:101A9000CF93DF93FC0101900020E9F73197AF016C
:101AA000481B590BBC0182E593E00E94B102EC0196
:101AB0000E94390C8C0F9D1FDF91CF9108950F93D9
:101AC0001F93CF93DF93EC0188819981009759F0A0
:101AD0002A813B812617370730F081E0DF91CF91D3
:101AE0001F910F9108958B016F5F7F4F0E945920C6
:101AF000009759F0998388831B830A832C813D8149
:101B0000232B59F7FC011082E8CF80E0E7CFEF925A
:101B1000FF920F931F93CF93DF936115710541F4EB
:101B200080E0DF91CF911F910F91FF90EF9008958A
:101B300041155105B1F07B01EC010C811D81040FB1
:101B4000151FB8010E945F0D882351F32881398148
:101B50008C819D81B701820F931F0E941F211D83DD
:101B60000C8381E0DECFCF93DF93EC0188819981F4
:101B7000009711F00E94D01F198218821D821C82CA
:101B80001B821A82DF91CF910895CF93DF93EC01EE
:101B900041E050E063E272E00E94870D811103C0D2
:101BA000CE010E94B30DCE01DF91CF910895EF9247
:101BB000FF920F931F93CF93DF93EC017B018A0178
:101BC000BA010E945F0D81110BC0CE010E94B30DBE
:101BD000CE01DF91CF911F910F91FF90EF9008956B
:101BE0001D830C83B701888199810E941F21F0CF4A
:101BF000EF92FF920F931F93CF93DF93CDB7DEB792
:101C000062970FB6F894DEBF0FBECDBF8C01CB013B
:101C1000F8011182108213821282158214824AE026
:101C20009E012F5F3F4F7901B9010E94061BF7010A
:101C300001900020E9F73197AF014E195F09B70114
:101C4000C8010E94D70D62960FB6F894DEBF0FBE92
:101C5000CDBFDF91CF911F910F91FF90EF9008952D
:101C6000FC01118210821382128215821482611586
:101C7000710551F0FB0101900020E9F73197AF01A8
:101C8000461B570B0C94D70D0895FC018081918160
:101C9000009711F00C94D01F0895EF92FF920F93CC
:101CA0001F93CF93DF93CDB7DEB72C970FB6F89481
:101CB000DEBF0FBECDBF0AE111E08CE2E82E81E06D
:101CC000F82EE016F10661F0D8018D919D918D01FD
:101CD000DC01ED91FC910190F081E02D0995F1CFAF
:101CE00063E072E0CE0107960E94300E68EC74E06B
:101CF000CE0101960E94300E4D815E8169817A810C
:101D0000CE0107960E94870DCE0101960E94450ED6
:101D100043E050E066E072E0CE0107960E94870D36
:101D20001A8219821C821B821E821D826F81788515
:101D30006115710531F04B855C85CE0101960E94DD
:101D4000D70DCE0107960E94450E18861F821A866F
:101D500019861C861B8669817A816115710531F0AF
:101D60004D815E81CE0107960E94D70D4B855C8523
:101D70006F81788582E593E00E94B1020E94390C60
:101D8000CE0107960E94450ECE0101960E94450E97
:101D90001092C9051092C8051092C80487E494E017
:101DA0000E946B0980914A0490914B04A0914C04CD
:101DB000B0914D0480934E0490934F04A09350042F
:101DC000B09351040E94A302609352047093530491
:101DD0008093540490935504809149042C960FB637
:101DE000F894DEBF0FBECDBFDF91CF911F910F9151
:101DF000FF90EF9008950F931F93CF93DF93CDB78C
:101E0000DEB72C970FB6F894DEBF0FBECDBF8C01A6
:101E100069E170E080E090E00E947102F80160A545
:101E200071A5C8014A960E94080A6FE077E2892BE3
:101E300019F4F801628D738DCE0107960E94F80D9A
:101E40006AE072E0CE0101960E94300EAE01495F59
:101E50005F4FBE016F5F7F4FC8010E943809CE01FE
:101E600001960E94450ECE0107960E94450E2C96C3
:101E70000FB6F894DEBF0FBECDBFDF91CF911F919B
:101E80000F9108950F931F93CF93DF93CDB7DEB7D4
:101E90002C970FB6F894DEBF0FBECDBF8C01FC01AE
:101EA00060A571A54A960E94080A6FE077E2892B27
:101EB00019F4F801648D758DCE0107960E94F80D16
:101EC00063E172E0CE0101960E94300EAE01495FDF
:101ED0005F4FBE016F5F7F4FC8010E943809CE017E
:101EE00001960E94450ECE0107960E94450E2C9643
:101EF0000FB6F894DEBF0FBECDBFDF91CF911F911B
:101F00000F9108950F931F93CF93DF93CDB7DEB753
:101F10002C970FB6F894DEBF0FBECDBF8C010E9488
:101F20005F0CBC01CE0107960E94F80D60E272E0E2
:101F3000CE0101960E94300EAE01495F5F4FBE0197
:101F40006F5F7F4FC8010E943809CE0101960E9441
:101F5000450ECE0107960E94450E2C960FB6F894BA
:101F6000DEBF0FBECDBFDF91CF911F910F910895BE
:101F70000F931F93CF93DF93CDB7DEB762970FB662
:101F8000F894DEBF0FBECDBF8C014A960E94BE03FF
:101F9000BC01CE010D960E94F80DF801658D768D7D
:101FA000CE0107960E94F80D65E272E0CE0101961F
:101FB0000E94300E4B855C856F817885CE0101963D
:101FC0000E94870D811104C0CE0101960E94B30DBD
:101FD000CE0101960E94C50DAE01435F5F4FBC016B
:101FE000C8010E943809CE0101960E94450ECE011B
:101FF00007960E94450ECE010D960E94450E6296F0
:102000000FB6F894DEBF0FBECDBFDF91CF911F9109
:102010000F9108950F931F93CF93DF93CDB7DEB742
:1020200062970FB6F894DEBF0FBECDBF8C01FC01E6
:10203000828D0E943702BC01CE010D960E94F80DE0
:10204000F801628D738DCE0107960E94F80D6BE248
:1020500072E0CE0101960E94300E4B855C856F8147
:102060007885CE0101960E94870D811104C0CE01B2
:1020700001960E94B30DCE0101960E94C50DAE01DE
:10208000435F5F4FBC01C8010E943809CE01019631
:102090000E94450ECE0107960E94450ECE010D9678
:1020A0000E94450E62960FB6F894DEBF0FBECDBFFC
:1020B000DF91CF911F910F910895CF93DF93EC01A2
:1020C0000E94BF09CE01DF91CF910C94D01F489799
:1020D0000C94D01F0C94D01F48970C94D01F0C94D4
:1020E000D01F48970C94D01F0C94D01F48970C9485
:1020F000D01F0C94D01F48970C94D01F0C94D01F65
:102100000C94D01F0C94D01F0C94D01F0C94D01F93
:102110000C94D01F85ED8093BC0080911A039091A0
:102120001B03A0911C03B0911D030796A11DB11DB7
:1021300023E0B695A795979587952A95D1F7209195
:10214000BC0024FD03C010921803089540911A03A7
:1021500050911B0360911C0370911D03452B462B6E
:10216000472B69F30097A105B10541F02AE22A95B2
:10217000F1F700C00197A109B109E1CF80911903DE
:102180000C94D704AF92BF92CF92DF92EF92FF925E
:102190000F931F93CF93DF938C016B015A017C0146
:1021A00022E0E20EF11CEC01CE5FDE4F88819981C6
:1021B00018161906D4F188819981F50121812F9390
:1021C00020812F93F60121812F9320812F9323E3E8
:1021D00032E03F932F9320E031E0281B390B3F93EF
:1021E0002F93E80EF91EFF92EF920E94262128817C
:1021F0003981820F931F998388832DB73EB7265F5D
:102200003F4F0FB6F8943EBF0FBE2DBF8F3F9105D5
:1022100009F060F5DF91CF911F910F91FF90EF9042
:10222000DF90CF90BF90AF90089524E032E03F93CD
:102230002F9320E031E0281B390B3F932F938E0D15
:102240009F1D9F938F930E94262128813981820FA1
:10225000931F998388830F900F900F900F900F908A
:102260000F908F3F910509F008F4A5CF88E392E025
:102270000E94480DF801EF5FFE4F10828FEF90E053
:1022800099838883C7CF2F923F924F925F926F922C
:102290007F928F929F92AF92BF92CF92DF92EF92F6
:1022A000FF920F931F93CF93DF9300D000D000D005
:1022B000CDB7DEB79E838D837A8369831A01590176
:1022C000640F751F620F731F600F711F072E000CC4
:1022D000880B990B0E94421B20E030E040E85EE34F
:1022E0000E94A11B6B017C01B801110F880B990B97
:1022F0000E94421BA70196010E94F91C2B013C0180
:10230000B501BB0C880B990B0E94421BA7019601DB
:102310000E94F91C4B015C0129813A81B901330FFC
:10232000880B990B0E94421BA70196010E94F91C81
:1023300069837A838B839C83B101330C880B990B5F
:102340000E94421BA70196010E94F91C6B017C01AF
:10235000A3019201C301B2010E94A11B2B013C0108
:10236000A5019401C501B4010E94A11B9B01AC0110
:10237000C301B2010E94FA1C4B015C0129813A8120
:102380004B815C81CA01B9010E94A11B9B01AC0178
:10239000C501B4010E94FA1C4B015C01A701960122
:1023A000C701B6010E94A11B9B01AC01C501B4018C
:1023B0000E94FA1C20E030E040E85EE30E94A11B8E
:1023C0000E94BA1E6B017C0120E030E0A9010E944E
:1023D0003B1B87FD93C020E030E04AEF53E4C70188
:1023E000B6010E94A71E181634F4C12CD12C9AEF06
:1023F000E92E93E4F92EC701B6010E944A1E9B0103
:10240000AC01AAE5B0E00E947E1C24EF31E040E080
:1024100050E00E945F1C4901ED81FE818281938121
:102420000E945F0C9A838983BC01990F880B990BDA
:102430000E94421B20E030E44CE156E40E94A71EBB
:1024400018160CF45FC029813A81ACEEBFEF0E94F0
:102450001F1F20E137E240E050E00E945F1CCA01EC
:10246000B9016C5E7F4F8F4F9F4F0E94421B6B01E3
:102470007C0120E030E0A9010E943B1B87FD42C0A7
:1024800020E030E040E450E4C701B6010E94A71EFE
:1024900018162CF4C12CD12C80E4E82EFE2CB401AB
:1024A000990C880B990B0E94421BA70196010E9470
:1024B000A11B0E944A1ECB016B35710514F08AE501
:1024C00090E097FF02C090E080E026960FB6F89467
:1024D000DEBF0FBECDBFDF91CF911F910F91FF9057
:1024E000EF90DF90CF90BF90AF909F908F907F90B4
:1024F0006F905F904F903F902F900895C12CD12CFA
:10250000760179CFC12CD12C7601C9CFCF92DF9241
:10251000EF92FF920F931F93CF93DF93E901641B18
:10252000750B072E000C880B990B0E94421B6B0148
:102530007C01B8016C1B7D0B072E000C880B990BDE
:102540000E94421BA70196010E94791D20EE3EE2E7
:1025500045E652E40E94A11B0E944A1E072E000C71
:10256000880B990B0E94421B6B017C0120E030E03C
:10257000A9010E943B1B87FF0AC020E030E044EB2A
:1025800053E4C701B6010E94FA1C6B017C0120E0F4
:1025900030E044E353E4C701B6010E94A71E1816B9
:1025A00054F420E030E047E853E4C701B6010E944C
:1025B0003B1B18162CF520E030E047E853E4C70138
:1025C000B6010E94A71E18166CF420E030E044EB20
:1025D00053E4C701B6010E943B1B18161CF0C12C26
:1025E000D12C7601C701B6010E944A1ECB01DF91B2
:1025F000CF911F910F91FF90EF90DF90CF900895B2
:10260000C12CD12C84E3E82E83E4F82EEBCF1F926B
:102610000F920FB60F9211242F933F938F939F9396
:10262000AF93BF9380914A0390914B03A0914C03C9
:10263000B0914D033091490323E0230F2D3758F516
:102640000196A11DB11D2093490380934A039093E5
:102650004B03A0934C03B0934D0380914E03909194
:102660004F03A0915003B09151030196A11DB11DDC
:1026700080934E0390934F03A0935003B093510364
:10268000BF91AF919F918F913F912F910F900FBE6E
:102690000F901F90189526E8230F0296A11DB11DDB
:1026A000D2CF1F920F920FB60F9211242F933F9308
:1026B0004F935F936F937F938F939F93AF93BF934A
:1026C000EF93FF9382E593E00E942F03FF91EF9138
:1026D000BF91AF919F918F917F916F915F914F913A
:1026E0003F912F910F900FBE0F901F9018951F9242
:1026F0000F920FB60F9211242F938F939F93EF9306
:10270000FF93E0916203F09163038081E09168039D
:10271000F091690382FD1BC0908180916B038F5FF4
:102720008F7320916C03821741F0E0916B03F0E00E
:10273000EE5AFC4F958F80936B03FF91EF919F9121
:102740008F912F910F900FBE0F901F901895808141
:10275000F4CF1F920F920FB60F9211240F900FBE5D
:102760000F901F9018951F920F920FB60F92112481
:102770002F933F934F935F936F937F938F939F9389
:10278000AF93BF93CF93DF93EF93FF9380913E037B
:10279000C0911304D0E087FF24C0109285001092EE
:1027A000840080913E038F5F80933E0380913E03BF
:1027B000082E000C990B8C179D0724F480913E0382
:1027C0008C30C4F18091840090918500049680340F
:1027D0009C4908F47AC08091840090918500049609
:1027E00076C080913E03082E000C990B8C179D0734
:1027F000C4F6E0913E038E2FEE0F990BFC01EE0F15
:10280000FF1FE80FF91FE151FC4F808186FFC9CF00
:10281000E0913E038E2FEE0F990BFC01EE0FFF1F90
:10282000E80FF91FE151FC4F808160E08F730E9437
:10283000D801B7CF2091840030918500E0913E030C
:102840008E2FEE0F990BFC01EE0FFF1FE80FF91F03
:10285000E151FC4F81819281820F931F90938900F7
:1028600080938800E0913E038E2FEE0F990BFC01C0
:10287000EE0FFF1FE80FF91FE151FC4F808186FF2B
:1028800011C0E0913E038E2FEE0F990BFC01EE0F6D
:10289000FF1FE80FF91FE151FC4F808161E08F734A
:1028A0000E94D801FF91EF91DF91CF91BF91AF913D
:1028B0009F918F917F916F915F914F913F912F9158
:1028C0000F900FBE0F901F90189580E49CE9909395
:1028D0008900809388008FEF80933E03E3CF1F929F
:1028E0000F920FB60F9211242F933F934F935F9344
:1028F0006F937F938F939F93AF93BF93EF93FF93C8
:102900008091B900887F803609F44AC0F0F588329A
:1029100009F4A7C018F5803109F49BC0B8F48823E6
:1029200009F4F9C0883009F494C0FF91EF91BF9188
:10293000AF919F918F917F916F915F914F913F9157
:102940002F910F900FBE0F901F901895883109F4AA
:1029500088C0803251F78093160314C0803409F484
:102960009DC040F48033B9F38833F9F680931603A1
:1029700085ECB0C0803509F485C0883509F496C06F
:10298000883499F60E948A10D0CF883909F48CC017
:1029900038F5883729F050F4883611F0803729F659
:1029A00083E0809318031092F10257C0883809F42D
:1029B0007BC0803919F0803809F0B7CF8091F102DF
:1029C000803208F071C0E091F10281E08E0F8093B7
:1029D000F1028091BB00F0E0EF52FD4F80833DC0DB
:1029E000803B39F0E0F4803A09F479C0883A09F084
:1029F0009CCF84E0809318031092D0021092CF02F3
:102A0000E0914303F091440309958091CF02811135
:102A10000FC081E08093CF021092AF0209C0803CCA
:102A200009F4A6CF883C09F4A3CF883B09F07DCFF9
:102A3000E091D00281E08E0F8093D002F0E0E1556A
:102A4000FD4F80818093BB009091D0028091CF0296
:102A500029C0809113038093BB0085EC8093BC0058
:102A600064CF9091150380911403981758F5E09165
:102A7000150381E08E0F80931503F0E0EE50FD4FBB
:102A80008081E9CFE091150381E08E0F80931503DB
:102A90008091BB00F0E0EE50FD4F808390911503D4
:102AA000809114039817C8F285E8D8CFE0911503F8
:102AB00081E08E0F809315038091BB00F0E0EE5013
:102AC000FD4F80838091170381115CCF81E080935B
:102AD000120384EA8093BC001092180326CF85EC81
:102AE0008093BC00109218038091F102803230F480
:102AF000E091F102F0E0EF52FD4F10826091F1029F
:102B000070E0E0914103F091420381ED92E009957C
:102B10001092F1020ACF1092160334CF8F929F9237
:102B2000AF92BF92CF92DF92EF92FF92CF93DF935B
:102B3000109255031092540388EE93E0A0E0B0E0A9
:102B40008093560390935703A0935803B09359036F
:102B500022E431E0309353032093520325EC30E01C
:102B600030935F0320935E0324EC30E030936103E5
:102B70002093600320EC30E03093630320936203E2
:102B800021EC30E0309365032093640322EC30E0C5
:102B9000309367032093660326EC30E0309369039B
:102BA0002093680310926B0310926C0310926D03D4
:102BB00010926E031092170410921604809318045A
:102BC00090931904A0931A04B0931B0484E591E038
:102BD00090931504809314041092E3061092E20679
:102BE00080E991E09093CD068093CC068CE991E04A
:102BF0009093E5068093E40685E48093E7068AE9EE
:102C000099E9A9E9BFE38093E8069093E906A093C8
:102C1000EA06B093EB061092ED061092EC0683E202
:102C20008093E60684E194E09093EF068093EE06AD
:102C30001092B9061092B8068EEE91E09093A3061A
:102C40008093A2068AEF91E09093BB068093BA0628
:102C500087E090E09093CB068093CA0610928F068F
:102C600010928E0628ED31E0309379062093780695
:102C700024EE31E030939106209390069093A106C4
:102C80008093A006109273061092720622EC31E037
:102C900030935D0620935C068EEC91E09093750670
:102CA000809374064EE050E050937706409376068A
:102CB0001092570610925606309341062093400614
:102CC00090935906809358064FE050E050935B066E
:102CD00040935A0610923B0610923A06309325060E
:102CE0002093240690933D0680933C0640E150E0FB
:102CF00050933F0640933E0610921F0610921E0608
:102D000030930906209308069093210680932006AD
:102D100081E190E0909323068093220610920006B2
:102D20001092FF058AE791E09093EA058093E90508
:102D300086E891E090930206809301068091130447
:102D40008C3008F033C291E0980F90931304809375
:102D5000030690E0FC01EE0FFF1FE80FF91FE151A1
:102D6000FC4F88EB9BE09283818389E090E0909315
:102D70000706809306061092E1051092E0058AE7A7
:102D800091E09093CB058093CA0586E891E09093FB
:102D9000E3058093E205809113048C3008F00AC2A9
:102DA00091E0980F909313048093E40590E0FC0168
:102DB000EE0FFF1FE80FF91FE151FC4F88EB9BE07E
:102DC00092838183EAE0F0E0F093E805E093E70581
:102DD00088EB91E09093C7048093C6041092C905D4
:102DE0001092C8051092C8048EEA91E09093C30433
:102DF0008093C2048CEC96E09093C5048093C40445
:102E00001092B5041092AF041092AE041092B10467
:102E10001092B0041092B3041092B2041092B40451
:102E200081E08093B50480E791E0909385048093DE
:102E3000840489EE95E0909387048093860488E06B
:102E400091E09093890480938804A2E3B0E0B0936A
:102E50008B04A0938A0440E050E060E87FE3409355
:102E60008C0450938D0460938E0470938F044DEC0A
:102E70005CEC6CEC7DE34093900450939104609380
:102E80009204709393044093940450939504609338
:102E900096047093970410929804109299041092DB
:102EA0009A0410929B0410929C0410929D0410921C
:102EB0009E0410929F041092A0041092A1041092FC
:102EC000A2041092A3048FE090E09093A504809355
:102ED000A40460910001709101017093A7046093B4
:102EE000A60440910201509103015093A90440931C
:102EF000A80420910401309105013093AB04209384
:102F0000AA0480910601909107019093AD048093EB
:102F1000AC04C6E6D1E0D0936F04C0936E04CAEC53
:102F2000D5E0D0937104C0937004C2ECD4E0D09388
:102F30007304C0937204B0937504A0937404C12CFD
:102F4000D12CA0ECEA2EAFE3FA2EC0927604D092F8
:102F50007704E0927804F0927904F0937B04E09394
:102F60007A0470937D0460937C0450937F044093B3
:102F70007E04309381042093800490938304809393
:102F80008204C6EAD1E0D0934804C09347048091FC
:102F900049048E7F80934904809149048D7F8093FA
:102FA0004904809149048B7F809349041092520414
:102FB00010925304109254041092550410924A0433
:102FC00010924B0410924C0410924D0410924E0437
:102FD00010924F0410925004109251041092690400
:102FE0001092680410926B0410926A0410926D049F
:102FF00010926C0410925E0410925F0410926004B0
:10300000109261048DE49EE09093630480936204C7
:103010001092650410926404109267041092660482
:10302000B8EE8B2EB3E09B2EA12CB12C80924A04DB
:1030300090924B04A0924C04B0924D0480914A04AB
:1030400090914B04A0914C04B0914D0480934E0498
:1030500090934F04A0935004B09351040E94A30294
:1030600060935204709353048093540490935504D6
:10307000CC24CA94DC2C7601C0925604D09257041A
:10308000E0925804F0925904C0925A04D0925B0422
:10309000E0925C04F0925D04D0932104C09320047C
:1030A000809122048E7F80932204809122048D7F60
:1030B00080932204809122048B7F809322041092BB
:1030C0002B0410922C0410922D0410922E041092B6
:1030D00023041092240410922504109226041092C6
:1030E0002704109228041092290410922A041092A6
:1030F000420410924104109244041092430410922E
:10310000460410924504109237041092380410922D
:10311000390410923A0484E996E090933C04809339
:103120003B0410923E0410923D0410924004109211
:103130003F048092230490922404A0922504B0922C
:1031400026048091230490912404A0912504B09139
:1031500026048093270490932804A0932904B09315
:103160002A040E94A30260932B0470932C04809382
:103170002D0490932E04C0922F04D0923004E0923C
:103180003104F0923204C0923304D0923404E092BD
:103190003504F0923604DF91CF91FF90EF90DF90ED
:1031A000CF90BF90AF909F908F9008958FEF8093B6
:1031B0000306DBCD8FEF8093E40504CE789484B5CD
:1031C000826084BD84B5816084BD85B5826085BD23
:1031D00085B5816085BD80916E00816080936E00B1
:1031E00010928100809181008260809381008091A3
:1031F0008100816080938100809180008160809354
:1032000080008091B10084608093B1008091B00013
:1032100081608093B00080917A00846080937A000E
:1032200080917A00826080937A0080917A00816038
:1032300080937A0080917A00806880937A0010925F
:10324000C100109248031092470310924603109257
:1032500045030E94B9048FEA92E09093440380935F
:10326000430380EB92E09093420380934103E0910B
:103270006203F091630382E08083E0915E03F0914A
:103280005F031082E0916003F091610380E180832D
:1032900010926A03E0916603F091670386E08083F1
:1032A000E0916403F0916503808180618083E09107
:1032B0006403F0916503808188608083E0916403FA
:1032C000F0916503808180688083E0916403F091D0
:1032D000650380818F7D8083CCE2D1E081E0CE33B5
:1032E000D807D9F40AE111E0C6ECD4E0B1E00C3221
:1032F0001B0711F1D801ED91FD918D018689978908
:103300008A309105A4F40196978B868B880F991FBC
:10331000E80FF91FD183C083E9CF89919991DC012E
:10332000ED91FC910190F081E02D0995D7CF89E6D0
:1033300092E00E94480DDACF87E494E020916C047B
:1033400030916D04232B21F51092B5042EEA34E060
:1033500030936D0420936C042091AE043091AF043F
:10336000232B09F0BFC09093AF048093AE0410925A
:1033700069041092680410926B0410926A0487E446
:1033800094E09093B1048093B00481E08093B504FD
:1033900087E494E00E946B0980E294E02091450468
:1033A00030914604232B21F51092B5042EEA34E027
:1033B00030934604209345042091AE043091AF042D
:1033C000232B09F09AC09093AF048093AE0410921F
:1033D000420410924104109244041092430480E28B
:1033E00094E09093B1048093B00481E08093B5049D
:1033F00080E294E00E946B09C0E0D0E08091AE04CE
:103400009091AF049093B3048093B2041092B604E9
:103410001092B7041092B8041092B9041092BA0432
:103420001092BB041092BC041092BD041092BE0412
:103430001092BF041092C0041092C1048091B50490
:10344000882309F4D0C08091B4048111CCC0E091EC
:10345000B204F091B304309709F4C5C08091BA0466
:103460009091BB04A091BC04B091BD040196A11D34
:10347000B11D8093BA049093BB04A093BC04B09395
:10348000BD0403A114A1828180FF27C08091B604EE
:103490009091B704A091B804B091B9040196A11D10
:1034A000B11D8093B6049093B704A093B804B09371
:1034B000B90487859089A189B289892B8A2B8B2BA6
:1034C00039F5928182818E7F828382818D7F828392
:1034D00090FF03C0CF010E9468061093B3040093CD
:1034E000B204B1CFE091B004F091B104F09369045B
:1034F000E093680494A383A33ECFE091B004F091DD
:10350000B104F0934204E093410494A383A363CFF6
:103510000E94A302E091B204F091B304438054806E
:103520006580768083849484A584B684C780D084A3
:10353000E184F284DC01CB0188199909AA09BB094D
:103540008C159D05AE05BF0540F287859089A18940
:10355000B289181619061A061B065CF4878590892D
:10356000A189B2890197A109B1098787908BA18BA5
:10357000B28B8789908DA18DB28D0196A11DB11D51
:10358000878B908FA18FB28F83859485A585B68513
:10359000C780D084E184F2848C0D9D1DAE1DBF1DBB
:1035A00083879487A587B68747825086618672860F
:1035B000038CF48DE02D309709F48FCF099580911D
:1035C000BE049091BF04A091C004B091C1040196C3
:1035D000A11DB11D8093BE049093BF04A093C004AD
:1035E000B093C1047ACF209709F408CF0E941B033F
:1035F000882309F403CF0E94000000CF80E294E00A
:103600000E94BF0987E494E00C94BF09BB274A30AD
:1036100031F4992322F4BDE2909581959F4F0C944B
:10362000121BBB27FB015527AA27880F991FAA1F2A
:10363000A41710F0A41B83955051B9F7A05DAA33CD
:1036400008F0A95DA193009779F7B111B193119298
:10365000CB010C942B1BDC01FC01672F71917723AC
:10366000E1F7329704C07C916D9370836291AE173D
:10367000BF07C8F308950E947D1B08F481E00895F8
:10368000E89409C097FB3EF49095809570956195FC
:103690007F4F8F4F9F4F9923A9F0F92F96E9BB27B2
:1036A0009395F695879577956795B795F111F8CF2E
:1036B000FAF4BB0F11F460FF1BC06F5F7F4F8F4F99
:1036C0009F4F16C0882311F096E911C0772321F08F
:1036D0009EE8872F762F05C0662371F096E8862F27
:1036E00070E060E02AF09A95660F771F881FDAF77E
:1036F000880F9695879597F90895990F0008550FAB
:10370000AA0BE0E8FEEF16161706E807F907C0F067
:1037100012161306E407F50798F0621B730B840B6F
:10372000950B39F40A2661F0232B242B252B21F449
:1037300008950A2609F4A140A6958FEF811D811DE9
:1037400008950E94B41B0C94251C0E94171C38F08D
:103750000E941E1C20F0952311F00C940E1C0C945A
:10376000141C11240C94591C0E94361C70F3959F54
:10377000C1F3950F50E0551F629FF001729FBB2768
:10378000F00DB11D639FAA27F00DB11DAA1F649F04
:103790006627B00DA11D661F829F2227B00DA11DB7
:1037A000621F739FB00DA11D621F839FA00D611D3D
:1037B000221F749F3327A00D611D231F849F600D5E
:1037C000211D822F762F6A2F11249F5750409AF087
:1037D000F1F088234AF0EE0FFF1FBB1F661F771F13
:1037E000881F91505040A9F79E3F510580F00C94DE
:1037F0000E1C0C94591C5F3FE4F3983ED4F386955D
:1038000077956795B795F795E7959F5FC1F7FE2B7D
:10381000880F911D9695879597F9089597F99F6759
:1038200080E870E060E008959FEF80EC0895002448
:103830000A941616170618060906089500240A9415
:1038400012161306140605060895092E0394000C9B
:1038500011F4882352F0BB0F40F4BF2B11F460FF2A
:1038600004C06F5F7F4F8F4F9F4F089557FD905853
:10387000440F551F59F05F3F71F04795880F97FB34
:10388000991F61F09F3F79F08795089512161306EE
:103890001406551FF2CF4695F1DF08C0161617061D
:1038A0001806991FF1CF8695710561050894089552
:1038B000E894BB2766277727CB0197F90895052E53
:1038C00097FB1EF400940E94761C57FD07D00E94BF
:1038D000C81C07FC03D04EF40C94761C5095409500
:1038E000309521953F4F4F4F5F4F089590958095AC
:1038F000709561957F4F8F4F9F4F08950E94EA1CEE
:10390000A59F900DB49F900DA49F800D911D112433
:103910000895B7FF0C947E1C0E947E1C821B930BA3
:1039200008952F923F924F925F926F927F928F9263
:103930009F92AF92BF92CF92DF92EF92FF920F933E
:103940001F93CF93DF93CDB7DEB7CA1BDB0B0FB648
:10395000F894DEBF0FBECDBF09942A883988488805
:103960005F846E847D848C849B84AA84B984C8849B
:10397000DF80EE80FD800C811B81AA81B981CE0F92
:10398000D11D0FB6F894DEBF0FBECDBFED01089577
:10399000A1E21A2EAA1BBB1BFD010DC0AA1FBB1F53
:1039A000EE1FFF1FA217B307E407F50720F0A21BC5
:1039B000B30BE40BF50B661F771F881F991F1A9432
:1039C00069F760957095809590959B01AC01BD015C
:1039D000CF010895A29FB001B39FC001A39F700DB6
:1039E000811D1124911DB29F700D811D1124911D07
:1039F00008955058BB27AA270E94111D0C94251C1E
:103A00000E94171C38F00E941E1C20F039F49F3FC2
:103A100019F426F40C94141C0EF4E095E7FB0C94B6
:103A20000E1CE92F0E94361C58F3BA176207730761
:103A30008407950720F079F4A6F50C94581C0EF431
:103A4000E0950B2EBA2FA02D0B01B90190010C01AE
:103A5000CA01A0011124FF27591B99F0593F50F4C6
:103A6000503E68F11A16F040A22F232F342F44271E
:103A7000585FF3CF469537952795A795F040539516
:103A8000C9F77EF41F16BA0B620B730B840BBAF0E6
:103A90009150A1F0FF0FBB1F661F771F881FC2F751
:103AA0000EC0BA0F621F731F841F48F48795779565
:103AB0006795B795F7959E3F08F0B0CF9395880F1F
:103AC00008F09927EE0F9795879508950E94171C87
:103AD00060F080E891E009F49EEF0E941E1C28F03F
:103AE00040E851E071F45EEF0CC00C94141C0C948F
:103AF000581CE92FE0780E94361C40F3092E052A55
:103B0000B1F3261737074807590738F00E2E07F884
:103B1000E02569F0E025E0640AC0EF6307F800944F
:103B200007FADB01B9019D01DC01CA01AD01EF9388
:103B30000E94EF1D0E94251C0E94A91D5F91552324
:103B400039F02BED3FE049E450FD49EC0C94FA1CB0
:103B50000895DF93DD27B92FBF7740E85FE316169E
:103B6000170648075B0718F4D92F0E94AC1E9F93D5
:103B70008F937F936F930E94FA1EE8E6F0E00E9415
:103B8000801E0E94251C2F913F914F915F910E94B2
:103B9000B41BDD2351F09058A2EA2AED3FE049EC36
:103BA0005FE3D0785D270E94111DDF910C94251CE6
:103BB0000E94EC1D0C94251C0E941E1C58F00E94B3
:103BC000171C40F029F45F3F29F00C940E1C511192
:103BD0000C94591C0C94141C0E94361C68F39923F5
:103BE000B1F3552391F3951B550BBB27AA276217F9
:103BF0007307840738F09F5F5F4F220F331F441F06
:103C0000AA1FA9F335D00E2E3AF0E0E832D0915039
:103C10005040E695001CCAF72BD0FE2F29D0660F26
:103C2000771F881FBB1F261737074807AB07B0E869
:103C300009F0BB0B802DBF01FF2793585F4F3AF06F
:103C40009E3F510578F00C940E1C0C94591C5F3F5C
:103C5000E4F3983ED4F3869577956795B795F795F5
:103C60009F5FC9F7880F911D9695879597F90895DD
:103C7000E1E0660F771F881FBB1F62177307840779
:103C8000BA0720F0621B730B840BBA0BEE1F88F788
:103C9000E09508950E94511E6894B1110C94591C2E
:103CA00008950E943E1C88F09F5798F0B92F9927DD
:103CB000B751B0F0E1F0660F771F881F991F1AF017
:103CC000BA95C9F714C0B13091F00E94581CB1E008
:103CD00008950C94581C672F782F8827B85F39F007
:103CE000B93FCCF3869577956795B395D9F73EF4B0
:103CF00090958095709561957F4F8F4F9F4F089558
:103D0000DF93CF931F930F93FF92EF92DF927B018C
:103D10008C01689406C0DA2EEF010E94B41BFE01EC
:103D2000E894A5912591359145915591A6F3EF0120
:103D30000E94111DFE019701A801DA9469F7DF9036
:103D4000EF90FF900F911F91CF91DF9108950E9406
:103D50007D1B08F48FEF08959B01AC0160E070E0DB
:103D600080E89FE30C94D81D19F416F40C94141CED
:103D70000C94FE1E0E943E1CB8F39923C9F3B6F3BF
:103D80009F57550B87FF0E940C1F0024A0E640EAB6
:103D9000900180585695979528F4805C660F771FA0
:103DA000881F20F026173707480730F4621B730B73
:103DB000840B202931294A2BA69517940794202596
:103DC00031254A2758F7660F771F881F20F02617DE
:103DD0003707480730F4620B730B840B200D311D3D
:103DE000411DA09581F7B901842F9158880F9695B0
:103DF000879508959B01AC010C94A11B9F3F31F066
:103E0000915020F4879577956795B795880F911D08
:103E10009695879597F9089591505040660F771FB2
:103E2000881FD2F70895991B79E004C0991F96174F
:103E300008F0961B881F7A95C9F7809508950E940F
:103E4000EA1C332312F48A1B9B0B0C94291F0E943B
:103E5000EA1CB7FF0895821B930B0895EE0FFF1F16
:103E60000590F491E02D09940F931F93CF93DF9366
:103E70008230910510F482E090E0E091F606F09136
:103E8000F70630E020E0B0E0A0E0309799F421158B
:103E9000310509F44AC0281B390B24303105D8F507
:103EA0008A819B816115710589F1FB01938382836E
:103EB000FE0111C0408151810281138148175907C9
:103EC000E0F04817590799F4109761F012960C9397
:103ED000129713961C933296CF01DF91CF911F91C9
:103EE0000F9108950093F6061093F706F4CF21156D
:103EF000310551F04217530738F0A901DB019A014F
:103F0000BD01DF01F801C1CFEF01F9CF9093F706B2
:103F10008093F606CDCFFE01E20FF31F81939193BC
:103F20002250310939832883D7CF2091F40630916C
:103F3000F506232B41F420910C0130910D013093B3
:103F4000F5062093F40620910A0130910B0121150A
:103F5000310541F42DB73EB740910E0150910F014C
:103F6000241B350BE091F406F091F506E217F307F8
:103F7000A0F42E1B3F0B2817390778F0AC014E5FD9
:103F80005F4F2417350748F04E0F5F1F5093F5061B
:103F90004093F406819391939FCFF0E0E0E09CCFB3
:103FA000CF93DF930097E9F0FC01329713821282DE
:103FB000A091F606B091F706ED0130E020E01097F1
:103FC000A1F420813181820F931F2091F40630915A
:103FD000F5062817390709F061C0F093F506E0935C
:103FE000F406DF91CF910895EA01CE17DF07E8F5D7
:103FF0004A815B819E0141155105B1F7E901FB83BF
:10400000EA8349915991C40FD51FEC17FD0761F45C
:10401000808191810296840F951FE901998388839D
:10402000828193819B838A83F0E0E0E012968D91F8
:104030009C9113970097B9F52D913C911197CD0163
:104040000296820F931F2091F4063091F5062817EF
:10405000390739F6309751F51092F7061092F606A7
:10406000B093F506A093F406BCCFD383C2834081FE
:104070005181840F951FC817D90761F44E5F5F4FB8
:1040800088819981480F591F518340838A819B8180
:10409000938382832115310509F0B0CFF093F706A1
:1040A000E093F6069ECFFD01DC01C0CF13821282A1
:1040B000D7CFB0E0A0E0EFE5F0E20C94931C8C01C8
:1040C000009751F4CB010E94341F8C01C801CDB779
:1040D000DEB7E0E10C94AF1CFC01E60FF71F9C017A
:1040E00022503109E217F30708F49DC0D901CD91A0
:1040F000DC911197C617D70798F0C530D10530F37A
:10410000CE0104978617970708F3C61BD70B229793
:10411000C193D1936D937C93CF010E94D01FD6CFD2
:104120005B01AC1ABD0A4C018C0E9D1EA091F606D7
:10413000B091F706512C412CF12CE12C109731F560
:104140008091F4069091F5068815990509F05CC0F8
:104150004616570608F058C080910A0190910B014D
:10416000009741F48DB79EB740910E0150910F0119
:10417000841B950BE817F90708F055C0F093F50676
:10418000E093F406F90171836083A0CF8D919C9137
:10419000119712966C90129713967C901397A8150E
:1041A000B90559F56C0142E0C40ED11CCA14DB04F8
:1041B00020F1AC014A195B09DA011296159780F0DB
:1041C0006282738251834083D9016D937C93E114A1
:1041D000F10471F0D7011396FC93EE93129776CF0A
:1041E00022968C0F9D1FF90191838083F301EFCFFD
:1041F000F093F706E093F60669CF4816590608F4DF
:104200002C017D01D3019ACFCB010E94341F7C0188
:10421000009749F0AE01B8010E941621C8010E9422
:10422000D01F870153CF10E000E050CFFB01DC012D
:1042300002C001900D9241505040D8F70895FB0103
:10424000DC0101900D920020E1F70895AEE0B0E0AE
:10425000ECE2F1E20C949F1C0D891E898F89988DE8
:1042600026E02C831A83098397FF02C080E090E840
:1042700001979E838D83AE01455E5F4F698D7A8D78
:10428000CE0101960E9456214D815E8157FD0AC0E4
:104290002F813885421753070CF49A01020F131F20
:1042A000F80110822E96E4E00C94BB1CABE0B0E069
:1042B000ECE5F1E20C94911C7C013B018A01FC01CC
:1042C00017821682838181FFC8C1CE0101965C01ED
:1042D000F7019381F30193FD859193FF81913F0154
:1042E000882309F453C1853239F493FD859193FFF6
:1042F00081913F01853229F4B70190E00E94462365
:10430000E7CF912C212C312CFFE1F31538F08B32C3
:1043100011F190F4803209F1833229F137FC3CC06D
:1043200020ED280F2A3050F536FE20C08AE0989EF6
:10433000200D1124922E06C08D3291F0803371F73A
:10434000689430F8F30193FD859193FF81913F01CB
:104350008111DACF21C0689431F8689432F8F2CF35
:10436000689433F8EFCF689434F8ECCFEAE02E9EEF
:10437000200D1124222E689435F8E4CF8E3229F4D2
:1043800036FC04C1689436F8DDCF8C3619F4689495
:1043900037F8D8CF8836B1F2982F9F7D9554933057
:1043A000E0F08336A1F18337C1F1833509F063C0B2
:1043B0002801F2E04F0E511CF801C080D180692D18
:1043C00070E036FC02C06FEF7FEFC6010E94302321
:1043D0004C01689437F882010AC00C5F1F4FFFE35D
:1043E000F98388248394912C6501E89437F833FE8F
:1043F0002DC0522C8114910471F5552009F468CF19
:10440000B70180E290E00E9446235A94F6CFF8016B
:10441000808189830E5F1F4FE4CF2801F2E04F0EA9
:10442000511CF801C080D180692D70E036FC02C0BB
:104430006FEF7FEFC6010E943B234C018201D5CF75
:10444000B70180E290E00E9446232A9428141904C0
:1044500009F0B0F7CECFF60137FC859137FE819198
:104460006F01B70190E00E94462351105A94F1E089
:104470008F1A9108BFCF843619F0893609F077C0BA
:10448000F80137FE6BC060817181828193810C5F7E
:104490001F4FF32DFF763F2E97FF09C09095809513
:1044A000709561957F4F8F4F9F4F689437F82AE042
:1044B00030E0A5010E947623C82ECA188C2C432C0C
:1044C00036FE0CC0E89440F8C91440F434FE05C030
:1044D00032FC03C0F32DFE7E4F2E892C44FE95C086
:1044E000FE01EC0DF11D8081803309F087C0242D81
:1044F000297E422E842D8870582E43FC95C040FEA4
:104500008FC09C2C821418F42C0C922C981844FE0A
:1045100091C0B70180E390E00E94462342FE09C0AB
:1045200088E790E041FE02C088E590E0B7010E9474
:104530004623C91408F48AC0CA94D12C9FEFC91A23
:10454000D90ACA0CDB1CF60182916F01B70190E019
:104550000E944623AC14BD04B1F74FCF6081718136
:10456000072E000C880B990B0E5F1F4F92CFD32C98
:10457000E894D4F82AE030E0853739F1232D297FFB
:10458000D22E8F3601F148F48835A9F0F7018681E3
:1045900097812B96E2E10C94AD1C803749F0883767
:1045A000A9F7D4FE02C06894D2F820E130E00DC033
:1045B0006894D4F8F6CF34FE03C0822F8660D82EDC
:1045C00020E132E002C028E030E0F801D7FE0FC061
:1045D00060817181828193810C5F1F4FA5010E94D0
:1045E0007623C82ECA183D2CE89437F867CF60812F
:1045F000718190E080E00E5F1F4FF0CF42FC02C05F
:10460000839478CF8394839475CF842D867809F42E
:1046100071CFF6CFB70180E290E00E9446238394E9
:104620008214C0F3512C73CF522C5818821408F402
:104630006ECFF8CF842D867809F47BCF8BE241FED4
:1046400080E247FC8DE2B70190E071CFB70180E3D3
:1046500090E00E9446239A946CCF8FEF9FEF99CF02
:10466000FC010590615070400110D8F7809590953D
:104670008E0F9F1F0895FC01615070400190011042
:10468000D8F7809590958E0F9F1F08950F931F93D5
:10469000CF93DF93182F092FEB018B8181FD09C088
:1046A0001FEF0FEF812F902FDF91CF911F910F916F
:1046B000089582FF14C02E813F818C819D8128172F
:1046C00039073CF4E881F981CF0101969983888309
:1046D00010838E819F8101969F838E83E3CFE8852F
:1046E000F985812F0995892BA1F3DACFFA01AA2741
:1046F000283051F1203181F1E8946F936E7F6E5F25
:104700007F4F8F4F9F4FAF4FB1E03ED0B4E03CD0D2
:10471000670F781F891F9A1FA11D680F791F8A1FB5
:10472000911DA11D6A0F711D811D911DA11D20D01C
:1047300009F468943F912AE0269F11243019305DD6
:104740003193DEF6CF010895462F4770405D4193C7
:10475000B3E00FD0C9F7F6CF462F4F70405D4A3314
:1047600018F0495D31FD4052419302D0A9F7EACFDC
:10477000B4E0A6959795879577956795BA95C9F70B
:1047800000976105710508959B01AC010A2E0694FE
:104790005795479537952795BA95C9F7620F731FB7
:1047A000841F951FA01D089511E0CBE5D1E004C042
:1047B000FE010E942E1F2196CC35D107C9F7F8942F
:0247C000FFCF29
:1047C2005C0640062406080614010000F806800074
:1047D2000000000086128F068010CC06A206780622
:1047E2005C06400624060806E905CA05E406BA0680
:1047F2009006740658063C0620060106E2050000F3
:1048020000005103B102DE029E030F03ED02010319
:10481200000000004F0522056506F8041B05080587
:10482200F90400000000A0069206861000000000B5
:1048320060079106841000000000B80FC9088E06B8
:104842007E10E8FF000031098D067B100000000099
:10485200820F940C88066A10E8FF0000450D870657
:10486200671000000000BF095D1000000000431146
:104872009006821000000000C2109306881000000B
:1048820000000A1035098C067910E8FF000034098F
:104892008B06761000000000FB0E35098A067410A4
:1048A200E8FF000036098906711000000000420F7F
:1048B20035098A066F10E8FF0000370989066C1077
:1048C2000D0A00233B003B24250048756D65646199
:1048D200643A0054656D70657261747572613A0074
:1048E2004C75583A00536572766F00466F746F527A
:1048F2006573002573257300C2A14572726F722120
:1049020020204D656E73616A652064656D6173690F
:1049120061646F206C6172676F2E20205472756E15
:1049220063616E646F2E2E2E004C696D6974652072
:104932006465206F627365727661646F726573205D
:0C494200616C63616E7A61646F2E00008E
:00000001FF
